:1000000045C0000060C000005EC000005CC0000091
:100010005AC0000058C0000056C0000054C0000084
:1000200052C0000050C000004EC000004CC0000094
:100030004AC0000048C0000046C0000044C00000A4
:1000400042C0000040C00000B6C00000CCC00000AC
:100050003AC0000038C0000036C0000034C00000C4
:1000600032C0000030C000002EC000002CC00000D4
:100070002AC0000028C0000026C0000024C00000E4
:1000800022C0000020C000001EC0000011241FBEBE
:10009000CFEFD0E1DEBFCDBF13E0A0E0B1E0E0E8FC
:1000A000F4E000E00BBF02C007900D92A233B1074D
:1000B000D9F723E0A2E3B3E001C01D92AF34B20749
:1000C000E1F790D1DBC19CCFFC01EC5BFC4F2081C0
:1000D0002BBBEAE3F3E001900020E9F731979F01A1
:1000E0002A5333402330310539F4EFE3FCE93197EB
:1000F000F1F700C0000008952430310539F4EFEB2A
:10010000FDE53197F1F700C0000008952530310575
:1001100039F4EFE1FEE43197F1F700C000000895F3
:100120002630310539F4EFE7FEE33197F1F700C0EF
:10013000000008952730310539F4EFEDFEE23197E4
:10014000F1F700C000000895EFE3FFE13197F1F708
:1001500000C0000008951BB888E98AB986E0809342
:1001600095001092900083E389B908958B3571F45E
:1001700092E09BBBEAE3F3E024E433E01192E21760
:10018000F307E1F710923703109236031BBA91E0A0
:100190009BBB2091360330913703A9014F5F5F4F1E
:1001A0005093370340933603F901E65CFC4F80839C
:1001B0008AE393E008951F920F920FB60F921124D5
:1001C0008F939F938CB180934E0381E090E0909346
:1001D000390380933803559A9F918F910F900FBEEA
:1001E0000F901F9018951F920F920FB60F92112427
:1001F0002F938F939F9380914E038CB955982FEF37
:1002000080E792E0215080409040E1F700C000007C
:100210009F918F912F910F900FBE0F901F90189567
:10022000BF92CF92DF92EF92FF920F931F93CF93E3
:10023000DF93B82E709335036093340380ED8B0DFC
:100240008A30A0F56930710509F467C08B2D90E004
:10025000C0977C01EE0CFF1C880F991F880F991F17
:10026000880F991FE80EF91E04E413E0C0E0D0E007
:100270000F2EF9E0CF2ED12CF02DFB01E353FD4FD3
:10028000EE0DFF1DEC0FFD1F8081F80181938F01A2
:10029000CE011ADF21966091340370913503C601B7
:1002A000861B970B8C179D0741F737C08FEB8B0D83
:1002B0008A3198F56930710581F18B2D90E0815478
:1002C00091097C01EE0CFF1C880F991F880F991F64
:1002D000880F991FE80EF91E04E413E0C0E0D0E097
:1002E0000F2EF9E0CF2ED12CF02DFB01E753FE4F5E
:1002F000EE0DFF1DEC0FFD1F8081F80181938F0132
:10030000CE01E2DE21966091340370913503C6017F
:10031000861B970B8C179D0741F78B2D90E0DF9183
:10032000CF911F910F91FF90EF90DF90CF90BF90F2
:100330000895AF92BF92DF92EF92FF920F931F93B7
:10034000CF93DF93D82EEAE3F3E001900020E9F7A2
:1003500031978F010A5313408BE5D81237C0E1E083
:10036000F1E025E131E080818BBB819188BB8FE199
:100370009EE40197F1F700C000002E173F0799F7A0
:1003800001501109023011050CF10F2EFAE3EF2E86
:10039000F3E0FF2EF02DC1E0D0E05701C130D105D0
:1003A00031F460E070E0F50181813ADF08C0C230CD
:1003B000D1052CF061E070E0F701818131DF2196F9
:1003C000FFEFEF1AFF0AC017D10744F38D2D90E01D
:1003D000DF91CF911F910F91FF90EF90DF90BF9031
:1003E000AF9008958FEF8ABB87BB1BBA18BAB3DEF4
:1003F0007894CAE3D3E0DD24D3940F2EF0E0EF2EFF
:10040000F1E0FF2EF02D01E010E06894CC24C1F85B
:100410005D9BFECF88818B3569F4FE010190002041
:10042000E9F7329780818D3529F0109333030093DB
:10043000320315C080914E038D3529F41092330399
:100440001092320309C02091320330913303232BE1
:1004500031F48A3209F4EA86D8BA88816ADF809159
:10046000380390913903019799F6C8BA80914E03E9
:100470007DDE1092390310923803CACFF894FFCF73
:10048000000000000000000000000000000000006C
:10049000000000000000000000000000000000005C
:1004A000000000000000000000000000000000004C
:1004B000000000000000000000000000000000003C
:1004C000000000000000000000000000000000002C
:1004D000000000000000000000000000000000001C
:1004E000000000000000000000000000000000000C
:1004F00000000000000000000000000000000000FC
:1005000000000000000000000000000000000000EB
:1005100000000000000000000000000000000000DB
:1005200000000000000000000000000000000000CB
:1005300000000000000000000000000000000000BB
:100540000000000000000000000000FC0A09090A89
:10055000FC00000000FF8989898976000000007E88
:10056000818181814200000000FF818181817E00C4
:10057000000000FF898989898900000000FF0909BE
:10058000090909000000007E81818151F20000000C
:1005900000FF08080808FF000000008181FF81813A
:1005A000000000000041817F01010000000000FF09
:1005B000182442810000000000FF808080808000BD
:1005C000000000FF02040402FF00000000FF020C14
:1005D0003020FF000000007E818181817E000000CC
:1005E00000FF0909090906000000003E4141516170
:1005F000BE00000000FF09090909F600000000B96B
:100600008989898972000000000101FF0101000051
:100610000000007F808080807F000000000738C0DD
:10062000C0380700000000FF40303040FF000000ED
:1006300000C1320C0C32C000000000030CF00C03AF
:100640000000000000C1A191898583000000007EA8
:10065000818181817E000000000000000000FF0019
:10066000000000F9898989898F0000000089898943
:100670008989FF000000000F08080808FF0000003B
:10068000008F89898989F900000000FF898989899B
:10069000F9000000000101010101FF00000000FF5E
:1006A00089898989FF000000000F09090909FF00F5
:0206B000000048
:00000001FF
